:100000000C945F000C9487000C9487000C9487007C
:100010000C9487000C9487000C9487000C94DD14DA
:100020000C9487000C9487000C9487000C94870034
:100030000C9487000C9487000C9487000C94870024
:100040000C940A170C9487000C9487000C9487007A
:100050000C9487000C9487000C9487000C94870004
:100060000C9487000C948700020000000800020135
:10007000000003040700000000000000000102046B
:10008000081020408001020408102001020408101A
:100090002004040404040404040202020202020311
:1000A000030303030300000000250028002B0000C9
:1000B000000000240027002A00006C0970091124A8
:1000C0001FBECFEFD8E0DEBFCDBF12E0A0E0B1E0B1
:1000D000E4EAF7E302C005900D92AA3EB107D9F712
:1000E00023E0AAEEB2E001C01D92A531B207E1F70C
:1000F00010E0CEE5D0E004C02197FE010E94A318D5
:10010000CD35D107C9F70E94F3160C94C51B0C948A
:1001100000008AE40895EF92FF921F93CF93DF933C
:100120007C01FC011382128280E892E0918380833B
:1001300086E090E00E940417EC0182E090E00E94CB
:100140000417FC01108211E011839983888382E0F7
:1001500090E00E940417FC01108211839B838A8324
:1001600082E090E00E940417FC01108311839D83BC
:100170008C8323E030E042E050E0BE01C701DF9114
:10018000CF911F91FF90EF900C9406018AE508959E
:10019000EF92FF920F931F93CF938C01DC01139684
:1001A0001C921E92129786E892E08D939C9384E0B5
:1001B00090E00E9404177C0183E090E00E94041705
:1001C000FC01C1E0C083C1831282D7018D939C934F
:1001D00083E090E00E940417FC011082C183C28377
:1001E000D70113969C938E93129722E030E043E060
:1001F00050E0B701C801CF911F910F91FF90EF9090
:100200000C940601FC01828193810895AF92BF9204
:10021000CF92DF92EF92FF920F931F93CF93DF93D2
:100220006C015B018A017901FC01C281D3812097B5
:1002300031F0CE010E94CF07CE010E94061786E062
:1002400090E00E940217EC01A701B8010E947B0711
:10025000F601D383C2839701A801B501CE01DF91D6
:10026000CF911F910F91FF90EF90DF90CF90BF90B3
:10027000AF900C945B08FC0182819381009711F090
:100280000C94860880E090E00895FC0182819381BF
:10029000009711F00C948A0880E090E00895FC012A
:1002A000828193810C94920883E50895EF92FF92E6
:1002B0000F931F93CF938C01DC0113961C921E9217
:1002C00012978CE892E08D939C9384E090E00E94DA
:1002D00004177C0183E090E00E940417FC01108267
:1002E000C1E0C183C283D7018D939C9383E090E0EA
:1002F0000E940417FC01C083C1831282D7011396A8
:100300009C938E93129722E030E043E050E0B701D7
:10031000C801CF911F910F91FF90EF900C940601AF
:1003200089E408950F931F93CF93DF93EC011B8211
:100330001A8282E992E09983888382E090E00E94A9
:1003400004178C0184E090E00E940417FC0181E016
:100350008083818382838383D801ED93FC9321E0A2
:1003600030E044E050E0B801CE01DF91CF911F9121
:100370000F910C94060184E50895EF92FF920F937C
:100380001F93CF938C01DC0113961C921E9212973F
:1003900088E992E08D939C9384E090E00E9404179A
:1003A0007C0183E090E00E940417FC011082C1E010
:1003B000C1831282D7018D939C9383E090E00E94C9
:1003C0000417FC01C083C183C283D70113969C9399
:1003D0008E93129722E030E043E050E0B701C8016D
:1003E000CF911F910F91FF90EF900C9406018FE435
:1003F0000895EF92FF920F931F93CF938C01FC010E
:10040000138212828EE992E09183808384E090E0EF
:100410000E9404177C0182E090E00E940417C1E072
:10042000FC01C083C183F7019183808382E090E067
:100430000E940417FC01C083C183F7019383828368
:1004400022E030E042E050E0B701C801CF911F91B7
:100450000F91FF90EF900C9406018CE40895EF92B9
:10046000FF921F93CF93DF937C01FC0113821282D2
:1004700084EA92E09183808386E090E00E940417F2
:10048000EC0182E090E00E94041711E0FC0110836F
:1004900011829983888382E090E00E940417FC0116
:1004A000108311829B838A8382E090E00E9404176C
:1004B000FC01108311839D838C8323E030E042E0B4
:1004C00050E0BE01C701DF91CF911F91FF90EF90E7
:1004D0000C94060108950F931F93CF93DF93EC01C3
:1004E000088119810115110531F0C8010E94180415
:1004F000C8010E9406170A811B810115110531F000
:10050000C8010E944606C8010E9406170C80DD81C2
:10051000C02D209779F0CE0148960E945C15CE013F
:1005200042960E945C15CE01DF91CF911F910F91F1
:100530000C940617DF91CF911F910F9108956F9240
:100540007F928F929F92AF92BF92CF92DF92EF9263
:10055000FF920F931F93CF93DF93EC0161E084E050
:100560000E94EC1761E083E00E94EC1761E082E0FA
:100570000E94EC1760E08EE00E94EC178AE290E0A7
:100580000E9402173C011F9282E08F931F9280E12C
:100590008F931F928AE08F931F9289E08F931F920F
:1005A00088E08F9387E0882E912C95E0A92EB12CBE
:1005B00025E0C22ED12C33E0E32EF12C02E010E036
:1005C00024E030E04FE050E068E070E0C3010E94BA
:1005D00039037982688280E290E00E9402178C01E0
:1005E0006EE070E00E942E061B830A838BE090E091
:1005F0000E9402178C016BE070E00E9404071F83C9
:100600000E8389E390E00E9402178C012E813F81C6
:100610004A815B81688179810E94020C1D830C8371
:100620008DB79EB70A960FB6F8949EBF0FBE8DBFCA
:10063000DF91CF911F910F91FF90EF90DF90CF90BE
:10064000BF90AF909F908F907F906F900895EC0136
:100650008A819B810E9475068C819D810E940A106F
:10066000888199810E94C4048E819F810E9419070C
:10067000EFCF2F923F924F925F926F927F928F9225
:100680009F92AF92BF92CF92DF92EF92FF920F9321
:100690001F93CF93DF93CDB7DEB762970FB6F89471
:1006A000DEBF0FBECDBF3C012B0158874F833A8779
:1006B00029871C870B87FE86ED86FC2CA98A8A8AEF
:1006C0000FA1E9A4CBA41FA5D8A82DB73EB7388B9E
:1006D0002F876AEB72E00E960E94CA156AEB72E0F1
:1006E000C30144960E94CA1543013AE1830E911C4E
:1006F0006AEB72E0C4010E94CA15530140E2A40EE5
:10070000B11C6AEB72E0C5010E94CA1586E090E058
:100710000E9402171C014F815885B2010E947B077D
:10072000F301318220820E945417F30166A377A35C
:1007300080A791A729853A85338322834B855C85E1
:10074000578346838D859E85958384832DA53EA5FD
:10075000318720871287D38688E190E00E940217B4
:100760002C012A8949896F2D0E94CF11F3015586EA
:10077000448620E0412F6DA5C2010E942A112DB7A9
:100780003EB74DA55EA5241B350B0FB6F8943EBFB2
:100790000FBE2DBF0DB71EB70F5F1F4FF80180E2D0
:1007A0009F01201B310B4DA55EA52417350714F4BE
:1007B0008193F6CFB801CE0101960E94CA15BE0101
:1007C0006F5F7F4FC4010E943316CE0101960E94D5
:1007D0005C15B801CE0101960E94CA15BE016F5F7B
:1007E0007F4FC5010E943316CE0101960E945C1511
:1007F0008F8598890FB6F8949EBF0FBE8DBF629605
:100800000FB6F894DEBF0FBECDBFDF91CF911F9121
:100810000F91FF90EF90DF90CF90BF90AF909F909F
:100820008F907F906F905F904F903F902F900895A2
:10083000EF92FF920F931F93CF93DF938C01FC01F4
:10084000C081D181209731F0CE010E94CF07CE0127
:100850000E940617F801848595850E940617E80115
:100860006A9671F07801F6E2EF0EF11CEC16FD06C7
:1008700039F086E0E81AF108C7010E945C15F6CF4E
:10088000025F1F4F41F0C017D10729F02697CE0114
:100890000E945C15F8CFDF91CF911F910F91FF90CF
:1008A000EF900895FC01808191810C948608FC01F1
:1008B000808191810C948A088F929F92AF92BF920F
:1008C000CF92DF92EF92FF920F931F93CF93DF931C
:1008D0006C015B0186E0869F8001879F100D1124CB
:1008E00078018EE0E80EF11CEC0CFD1C065E1F4F3B
:1008F0000C0D1D1DC0E0D0E0F60180859185C81764
:10090000D907ACF5F70184819581C817D90778F527
:10091000BE01C8010E94E016FC019080BE01C70123
:100920000E94E016FC0180819816F9F04A2D6C2F88
:10093000F601848595850E940F11BE01C7010E94B2
:10094000E016FC016081F601848595850E941F12E6
:10095000BE01C8010E94E0164C01BE01C7010E9401
:10096000E016FC018081F40180832196C5CFDF91E0
:10097000CF911F910F91FF90EF90DF90CF90BF909C
:10098000AF909F908F9008952F923F924F925F92D9
:100990006F927F928F929F92AF92BF92CF92DF928F
:1009A000EF92FF920F931F93CF93DF9300D0CDB7B9
:1009B000DEB78C012DB73EB73A8329830E945417C6
:1009C000F801C6A0D7A0E0A4F1A49B01AC012C19AA
:1009D0003D094E095F0969017A013AE0C316D10465
:1009E000E104F10408F4A0C066A377A380A791A74F
:1009F000808191810E948A084C01F8018081918157
:100A00000E9486082C01F801808191810E948E0845
:100A10003401640C751C2DB73EB7261937090FB683
:100A2000F8943EBF0FBE2DBF4DB75EB74F5F5F4F0F
:100A30007A015C011A01C1018E199F098815990577
:100A40000CF061C0F701CF018E199F09861597053B
:100A500014F41192F8CFF10121E021931F01D70185
:100A6000A80DB91D80E090E08415950564F4F501AA
:100A700020813181F901E80FF91F2081F1E02F2752
:100A80002D930196F1CF60E0F80186810E9428182D
:100A90006301D7FC13C060E0F80182810E9428182E
:100AA00061E0F80184810E94281860E0F8018481E7
:100AB0000E942818F1E0CF1AD108EBCF6701C60CCD
:100AC000D71CC6018E199F0997FD14C0F6016081DD
:100AD000F80182810E94281861E0F80184810E9457
:100AE000281860E0F80184810E942818F1E0CF1AEC
:100AF000D108E7CF61E0F80186810E942818F2E072
:100B0000AF0EB11C98CF60E070E0C8010E945C0499
:100B100061E070E0C8010E945C0429813A810FB64F
:100B2000F8943EBF0FBE2DBF49815A810FB6F8948D
:100B30005EBF0FBE4DBF0F900F90DF91CF911F9101
:100B40000F91FF90EF90DF90CF90BF90AF909F906C
:100B50008F907F906F905F904F903F902F9008956F
:100B6000FC01808191810C946D08CF92DF92EF920D
:100B7000FF920F931F93CF93DF9300D000D000D04C
:100B8000CDB7DEB78C017B016901BA01CE010196B8
:100B90000E94CA15B601CE0101960E94801626E079
:100BA0002E9DC0012F9D900D11240E96BE016F5FEA
:100BB0007F4F800F911F0E941C16CE0101960E944C
:100BC0005C1526960FB6F894DEBF0FBECDBFDF9141
:100BD000CF911F910F91FF90EF90DF90CF900895EC
:100BE000EF92FF920F931F93CF93DF9300D000D02B
:100BF00000D0CDB7DEB78C017B01BA01CE010196E2
:100C00000E94CA1526E02E9DC0012F9D900D112433
:100C10000E96BE016F5F7F4F800F911F0E941C16C2
:100C2000CE0101960E945C1526960FB6F894DEBFA1
:100C30000FBECDBFDF91CF911F910F91FF90EF902D
:100C40000895E6E0E69F9001E79F300D1124225FB2
:100C50003F4FBA01820F931F0C941C16CF93DF9362
:100C6000EC018AE090E09D8B8C8B8FEF9FEF9F8B48
:100C70008E8B1B8E1A8E798F688F0E9454176C8F03
:100C80007D8F8E8F9F8FDF91CF9108950895FC0106
:100C900087898095881F8827881F90E00895CF93C3
:100CA000DF93FC012689378937FD1AC08081918145
:100CB0006489758962507109DF0140E050E0461790
:100CC00057074CF44F5F5F4F1296CD91DC9113970D
:100CD000CD93DD93F4CF21503109378B268B02C0A1
:100CE00080E090E0DF91CF910895CF92DF92EF9274
:100CF000FF920F931F93CF93DF93EC010E94541741
:100D00000C8D1D8D2E8D3F8D6B017C01C01AD10A7B
:100D1000E20AF30A9701860104361105210531051F
:100D20000CF469C06C8F7D8F8E8F9F8F8C899D890D
:100D300001972E893F89281739070CF05CC0888DF0
:100D40000E94A617853F21E0920794F08A8D9B8D23
:100D5000049709F450C08E899F8901969F8B8E8BD2
:100D6000880F991FFE01E80FF91F84E090E03CC056
:100D7000813421E092078CF08A8D9B8D0197D9F107
:100D80008E899F8901969F8B8E8B880F991FFE01FC
:100D9000E80FF91F81E090E027C0813F91058CF0BA
:100DA0008A8D9B8D039739F18E899F8901969F8B40
:100DB0008E8B880F991FFE01E80FF91F83E090E0EA
:100DC00013C0893C9105ACF08A8D9B8D029799F0F8
:100DD0008E899F8901969F8B8E8B880F991FFE01AC
:100DE000E80FF91F82E090E0918380839B8F8A8FC8
:100DF00002C01B8E1A8EDF91CF911F910F91FF9031
:100E0000EF90DF90CF900895FC0172876187108288
:100E10008FEF9FEF908787830895FC0181E08083A7
:100E200050874783168215821182128213821482A0
:100E300008958F929F92AF92BF92CF92DF92EF92DE
:100E4000FF92CF93DF93FC012081222309F442C05B
:100E5000EC010E9454174B015C0189819A81AB819E
:100E6000BC8188169906AA06BB06A0F18D819E81D9
:100E7000880F991FFC01E65FFE4FC080D1800D2CCA
:100E8000000CEE08FF08FC01EE53FE4F60817181FB
:100E9000A701960189850E9426128D819E81019667
:100EA0008C3591051CF49E838D830CC01E821D829F
:100EB0008F81988597FD06C0019798878F8301964B
:100EC00009F41882C80CD91CEA1CFB1CC982DA82FE
:100ED000EB82FC82DF91CF91FF90EF90DF90CF907B
:100EE000BF90AF909F908F900895FC0180810895EE
:100EF000FC01108208958F929F92AF92BF92CF9281
:100F0000DF92EF92FF920F931F93CF93DF93EC0149
:100F10006B017A01798368835B834A8341388FE36D
:100F2000580720F4CA01880F991F02C08FEF9FEF66
:100F30000E9404179D838C8300E010E00E151F05AE
:100F40000CF54801880C991CAC80BD80A80CB91C1C
:100F5000C6010E940417F5019183808380E090E030
:100F60008C159D0564F4EC81FD81E80DF91D01905F
:100F7000F081E02DE80FF91F10820196F1CF0F5F8D
:100F80001F4FDCCFDF91CF911F910F91FF90EF901A
:100F9000DF90CF90BF90AF909F908F9008950F9368
:100FA0001F93CF93DF938C01C0E0D0E0F801228142
:100FB000338184819581C217D30774F49E01220F77
:100FC000331FFC01E20FF31F80819181009711F024
:100FD0000E9408172196EACF009731F0DF91CF9158
:100FE0001F910F910C940817DF91CF911F910F91D2
:100FF00008954F925F927F928F929F92AF92BF928D
:10100000CF92DF92EF92FF920F931F93CF93DF93D4
:1010100058019C2C2B01E70177247394BE016E19B3
:101020007F0962177307BCF56E01CC0CDD1CB5019E
:10103000A0E0B0E0A417B5074CF5F20100811181E2
:101040000A0F1B1FF801992081F010811123D1F0A4
:10105000FC01048115810C0D1D1DF8010081118119
:10106000060F171FF80170820DC08080FC010481FB
:1010700015810C0D1D1DF80100811181060F171F30
:10108000F801808211966F5F7F4FD4CF2196F2E0F6
:101090004F0E511CC3CFDF91CF911F910F91FF9045
:1010A000EF90DF90CF90BF90AF909F908F907F9008
:1010B0005F904F900895CF92EF92FF920F931F93FE
:1010C000C12CE12CF12C00E010E00E94F9071F91E7
:1010D0000F91FF90EF90CF900895CF92EF92FF92F3
:1010E0000F931F93FB0122813381408151816481E1
:1010F0007581C12CE12CF12C00E010E00E94F90771
:101100001F910F91FF90EF90CF900895FC01808187
:1011100091810895FC01828193810895FC0184816D
:10112000958108958F929F92AF92BF92CF92DF9256
:10113000EF92FF920F931F93CF93DF93EC0188817F
:10114000998181382FE3920718F4880F991F02C004
:101150008FEF9FEF0E9404176C018C017C01A12C82
:10116000B12CE881F9818A819B81AE16BF06ACF46F
:101170000E940417D7018D939D937D012A813B81A5
:10118000FC01AF01481B590B4217530714F411928D
:10119000F8CFBFEFAB1ABB0AE4CF40E050E07C01D0
:1011A00021E0E21A20E8F20ABB24B3944E175F074D
:1011B0001CF000E010E03BC0B701660F771F20E095
:1011C00030E02817390704F5AC81BD81A60FB71FA1
:1011D0000D90BC91A02DA40FB51FAC91AA2341F096
:1011E000D8018D909C90D401A20FB31FBC9207C070
:1011F000D8018D909C90D401A20FB31F1C922F5F39
:101200003F4F62507109DDCF4F5F5F4F0E5F1F4F41
:10121000CDCF9801220F331FFC01E20FF31F808115
:101220009181009711F00E9408170F5F1F4F2A81CC
:101230003B818C819D81021713075CF3009711F0AD
:101240000E9408178A819B81288139813B832A83E8
:1012500099838883CC82DD82DF91CF911F910F919A
:10126000FF90EF90DF90CF90BF90AF909F908F90C6
:1012700008950F931F93CF93DF93FC018281938195
:1012800020E030E028173907D4F400811181E9010A
:10129000CC0FDD1F40E050E0401751076CF4A481F3
:1012A000B581AC0FBD1F0D90BC91A02DA40FB51F33
:1012B0006C934F5F5F4FF0CF2F5F3F4FE3CFDF91D6
:1012C000CF911F910F9108958AEE92E00C949F02A6
:1012D0008AEE92E00C9427038AEE92E00C946A0264
:1012E0008AEE92E00C946B020F931F93CF93DF93DF
:1012F000CDB7DEB72C970FB6F894DEBF0FBECDBFCB
:101300008C0166EA72E0CE0107960E94CA15D801E8
:1013100093966D917C919497CE0107960E94B0169A
:10132000AE01495F5F4F60E070E0F801808191811C
:101330000E9421066FEA72E0CE0101960E94CA1552
:10134000D80150968D919C915197DC01ED91FC91C3
:101350000190F081E02D0995682FCE0101960E9441
:101360006D16AE014F5F5F4F61E070E0F801808164
:1013700091810E942106CE0101960E945C15CE014A
:1013800007960E945C152C960FB6F894DEBF0FBE30
:10139000CDBFDF91CF911F910F910895CF93DF9330
:1013A000EC014BEB52E060E070E0888199810E9493
:1013B000F0052BA13CA146EA52E061E070E0888193
:1013C00099810E94B5058A819B810E944706892BDD
:1013D00061F08A819B810E944F068DA99EA998AFDA
:1013E0008FAB86E090E09EAB8DABDF91CF910895FF
:1013F000FC01868597850C944F01FA01DB018D91E4
:101400009C918436910511F4F9010AC08C3691053E
:1014100021F480819181019706C08237910529F4DA
:10142000808191810196918380830895CF93DF938A
:1014300000D0CDB7DEB77A8369839C01205E3F4F31
:10144000AC01425E5F4FBE016F5F7F4F0E94FD099E
:101450000F900F90DF91CF9108954F925F926F920E
:101460007F928F929F92AF92BF92CF92DF92EF9234
:10147000FF920F931F93CF93DF9300D000D000D043
:10148000CDB7DEB77C017E836D83DC0190968D91B4
:101490009C9191979C838B835E968D919C915F9795
:1014A0009A8389839E012D5F3F4FAE014F5F5F4F4F
:1014B000BE016B5F7F4FC7010E94FD09F701868562
:1014C00097850E943B015C01D7011E968D919C91EE
:1014D0001F970E9445018C0189819A8197FD7BC0ED
:1014E0008A0D9B1DF70122853385281739070CF4D7
:1014F00072C0868597850E9402010E948E08782E10
:10150000692ED70116968D919C9117970E948E088F
:101510004C016B817C819801260F371FF701848570
:101520009585821793070CF456C0ED80FE80C98024
:10153000DA80E72DF62DAB01612C77247394CA0174
:10154000861B970B801791070CF047C0611045C0B0
:10155000DA01AA0FBB1F2D01480C591C80E090E056
:101560008A159B05A4F522E7E216F10481F4208197
:101570003181280F391FD9012C91222319F1D20171
:101580002D913C91280F391F2C0D3D1D17C0BCE635
:10159000EB16F10421F0B4E6EB16F10499F4208186
:1015A0003181280F391FD9012C91222359F0D20102
:1015B0002D913C912C0D3D1D280F391FD9012C91E7
:1015C000211102C00196CCCF66246394712C32960F
:1015D0004F5F5F4FB4CF80E001C0872D26960FB6D6
:1015E000F894DEBF0FBECDBFDF91CF911F910F9159
:1015F000FF90EF90DF90CF90BF90AF909F908F9033
:101600007F906F905F904F900895CF92DF92EF920E
:10161000FF920F931F93CF93DF93EC018E859F85ED
:101620000E943B018C018E859F850E9445017C01B3
:101630008E859F850E9402010E948E086C018E811A
:101640009F810E948E08D60140E050E0DD24D394B3
:101650004E155F0534F520E030E020173107ECF43B
:10166000ED91FC911197E20FF31F6081662391F0D9
:10167000E8A1F9A1E40FF51FEE0FFF1FE80FF91F16
:101680000190F081E02D6E8D7F8DE60FF71FE20F48
:10169000F31FD0822F5F3F4FE0CF4F5F5F4F129617
:1016A000D7CFDF91CF911F910F91FF90EF90DF90F7
:1016B000CF9008956F927F928F929F92AF92BF9238
:1016C000CF92EF92FF920F931F93CF93DF9300D0AF
:1016D00000D000D0CDB7DEB75C01FC0180819181E4
:1016E0000E9457048C01F501808191810E9452046F
:1016F000A801BC01CE0101960E947B07F50166811D
:101700007781CE0101960E946D08F5018685978547
:101710000097E9F0E0A0F1A0068D178D0E94450129
:101720003C01F501868597850E943B014C01F5013E
:10173000868597850E9402010E948E08CC24C3945E
:101740009301A401BC01CE0101960E94F907BE01DC
:101750006F5F7F4FF501808191810E94B005CE01BE
:1017600001960E94CF0726960FB6F894DEBF0FBEF3
:10177000CDBFDF91CF911F910F91FF90EF90CF9050
:10178000BF90AF909F908F907F906F900895CF9370
:10179000DF93EC0180E00E94A617BC01990F880B33
:1017A000990B0E94391509A8DAA9C02D66E070E0EE
:1017B00080E090E00E944115660F771FFE01E60F62
:1017C000F71F80819181DF91CF910895CF93DF93AF
:1017D000EC0188899989892B29F4CE010E94C70BD5
:1017E000998B888B888999899F878E87CE010E94E3
:1017F000C70B998B888B19A218A21F8E1E8EDF91A2
:10180000CF910895AF92BF92CF92DF92EF92FF9265
:101810000F931F93CF93DF93EC018B015A01690162
:101820001F861E86198A188A6AEB72E042960E9409
:10183000CA156AEB72E0CE0148960E94CA151AA238
:101840001CA21BA21CAA1BAA86E0E82EF12CFEAA51
:10185000EDAA18AE1FAAC8010E9452049B878A876E
:10186000C8010E9457049D878C87BB82AA82DD82B3
:10187000CC8286E090E00E9402176C014C855D8569
:101880006A857B850E947B07DF82CE82198308836D
:101890000E9454176DA37EA38FA398A70E9454178C
:1018A0006DA77EA78FA798AB0E94541769A77AA748
:1018B0008BA79CA78EE090E00E9404179AAB89AB9F
:1018C00084E090E00E9402178C010E949201E9A935
:1018D000FAA91183008384E090E00E9402178C0132
:1018E0000E948B00E9A9FAA91383028384E090E0A7
:1018F0000E9402178C010E942F02E9A9FAA9158300
:10190000048384E090E00E9402178C010E94F90198
:10191000E9A9FAA91783068384E090E00E940217E0
:101920008C010E945601E9A9FAA91187008784E079
:1019300090E00E9402178C010E94BD01E9A9FAA95A
:101940001387028784E090E00E9402178C010E94B6
:10195000C800E9A9FAA915870487CE010E94E60B01
:101960008DA99EA998AF8FABFEAAEDAADF91CF916A
:101970001F910F91FF90EF90DF90CF90BF90AF90AD
:101980000895CF92DF92EF92FF920F931F93CF9320
:10199000DF936B01EA017901FC01868197810E9446
:1019A0008E08A80141505109D601A00FB11F9A011C
:1019B000220F331F820F931F61E057FD1AC020E0F2
:1019C00030E02E153F0594F4FC0100811181F801EF
:1019D000E20FF31F7081772319F02F5F3F4FF1CF94
:1019E00020E02E93415051090297E7CF688321E010
:1019F000F8CFDF91CF911F910F91FF90EF90DF9083
:101A0000CF9008956F927F928F929F92AF92BF92E4
:101A1000CF92DF92EF92FF920F931F93CF93DF93BA
:101A20001F92CDB7DEB77C018DB69EB6FC018681D4
:101A300097810E9486085C01F701868197810E9448
:101A40008A086C018DB79EB78C199D090FB6F89462
:101A50009EBF0FBE8DBFEDB7FEB731963F01198215
:101A6000F701868197810E948E0886019501AE015B
:101A70004F5F5F4FB301C7010E94C10C898188236A
:101A800081F1F1E8CF16FFE3DF0620F4C601880FED
:101A9000991F02C08FEF9FEF0E940417F701808704
:101AA0009187FC01D3018EEF9FEF21E0A21AB108CC
:101AB0009D01261937092C153D0554F42D9122233B
:101AC00019F0B182A08202C0918380833296F0CF58
:101AD000F70185A996A990AF87AB83E090E096AB1C
:101AE00085AB0FB6F8949EBE0FBE8DBE0FB6F894B0
:101AF0009EBE0FBE8DBE0F90DF91CF911F910F91B3
:101B0000FF90EF90DF90CF90BF90AF909F908F901D
:101B10007F906F9008950F931F93CF93DF936E364E
:101B20007105C9F18B01EC010E942D0A81112BC0B6
:101B30000C36110581F10237110569F104361105E2
:101B400011F588A199A1892B49F48DA99EA998AF77
:101B50008FAB84E090E09EAB8DAB1DC0CE010E94A8
:101B6000050BCE010E94E60B8DA99EA998AF8FAB05
:101B700081E090E09EAB8DABCE01DF91CF911F91C4
:101B80000F910C94020DB801CE01DF91CF911F91FE
:101B90000F910C94160ADF91CF911F910F91089528
:101BA00064E670E00C948B0D0F931F93CF93DF933B
:101BB000EC011AA28C819D810E947507882321F077
:101BC0008C819D810E9478070E9454170DA51EA547
:101BD0002FA538A9DC01CB01801B910BA20BB30B05
:101BE000893E9340A105B10538F48A819B810E940A
:101BF0004706892B61F110C064E670E0CE010E94B7
:101C00008B0D0E9454176DA77EA78FA798AB8DA947
:101C10009EA9019791F5E9CF8A819B810E944F0689
:101C200082309105B9F081309105B9F0833091058A
:101C300049F48DA99EA998AF8FAB85E090E09EAB4B
:101C40008DAB05C0049719F4CE010E94F8096EE629
:101C500070E005C06CE670E002C062E770E08DA93C
:101C60009EA9019751F4CE010E948B0DCE01DF9108
:101C7000CF911F910F910C947409DF91CF911F9117
:101C80000F910895CF92DF92EF92FF920F931F93DF
:101C9000CF93DF93EC018E819F810E948A087C01A3
:101CA0008E819F810E9486088C018E819F810E9477
:101CB0008E086C0120E030E0688579852E153F059F
:101CC000A4F4F901EE0FFF1FDB01AE0FBF1F4D9112
:101CD0005C9111974F3F8FEF58071CF42F5F3F4FD8
:101CE000EBCF2F3F8FEF380779F46115710519F0AD
:101CF000CB010E9408178DA99EA998AF8FAB81E0F8
:101D000090E09EAB8DAB42C04F3F8FEF580721F064
:101D10009A01CE0EDF1E24C0EC0DFD1D1216130617
:101D2000D4F480E090E0AF01425051098017910750
:101D300074F4EA0168817981EB01C80FD91F6881C9
:101D4000C081D181C80FD91F68830196EFCF215080
:101D50003109FA01E3CF8EEF9FEF8D939C9316C06C
:101D60002017310754F4F60180819181820F931F6F
:101D7000FC0110822F5F3F4FF3CFCA0101978D9373
:101D80009C938BA19CA101969CA38BA3DF91CF91E7
:101D90001F910F91FF90EF90DF90CF900895EF92F9
:101DA000FF920F931F93CF937C0160E0DC011696A6
:101DB0008D919C9117970E943909F70182A1811199
:101DC0000CC042E050E061E070E0848195810E94A7
:101DD0000D0781E0D70192968C93F7018281938160
:101DE0000E944706D701892B99F012968D919C91FC
:101DF00013970E944F06C7010E94E60BF70185A9C1
:101E000096A990AF87AB81E090E096AB85ABFCC024
:101E10001F961C921E921E9746EC52E060E070E006
:101E20008D919C910E94F0054FEC52E061E070E0D2
:101E3000F701808191810E94F00580E190E00E948D
:101E400004178C0188E090E00E940417FC011082C6
:101E50001182128213821482158216821782D8018F
:101E60008D939C9388E090E00E940417FC011082FF
:101E7000C1E0C183C283C383C483C583C683178281
:101E8000D80113969C938E93129788E090E00E945D
:101E90000417FC011082C183C283C383C483C5833A
:101EA000C6831782D80115969C938E93149788E069
:101EB00090E00E940417FC01108211821282C383F9
:101EC000C483158216821782D80117969C938E932D
:101ED000169788E090E00E940417FC01108211829E
:101EE0001282C383C483158216821782D801199681
:101EF0009C938E93189788E090E00E940417FC0151
:101F0000108211821282C383C483158216821782C3
:101F1000D8011B969C938E931A9788E090E00E94BC
:101F20000417FC01108211821282C383C4831582BC
:101F300016821782D8011D969C938E931C9788E079
:101F400090E00E940417FC01108211821282138219
:101F50001482158216821782D8011F969C938E9345
:101F60001E9728E030E048E050E0B801F701868194
:101F700097810E945B08D8018D919C91009711F088
:101F80000E940817F80182819381009711F00E9446
:101F90000817D80114968D919C911597009711F010
:101FA0000E940817F80186819781009711F00E941E
:101FB0000817D80118968D919C911997009711F0E8
:101FC0000E940817F80182859385009711F00E94FE
:101FD0000817D8011C968D919C911D97009711F0C0
:101FE0000E940817F80186859785009711F00E94D6
:101FF00008170115110541F0C801CF911F910F91EC
:10200000FF90EF900C940817CF911F910F91FF90C4
:10201000EF900895CF92DF92EF92FF920F931F936C
:10202000CF93DF93EC010E9454170DA11EA12FA1A5
:1020300038A56B017C01C01AD10AE20AF30A9701A4
:102040008601043611052105310590F16DA37EA3AB
:102050008FA398A78DA99EA98130910521F4CE0167
:102060000E94D40D1AC08430910521F4CE010E9443
:10207000CE0913C08630910521F4CE010E94CF0E07
:102080000CC08330910521F4CE010E94420E05C0A0
:10209000059719F4CE010E94D00DCE01DF91CF91AA
:1020A0001F910F91FF90EF90DF90CF900C945A0BFF
:1020B000DF91CF911F910F91FF90EF90DF90CF9024
:1020C000089580E090E008950895CF93DF93EC01A8
:1020D00060E08E810E94281881E090E00E946017E5
:1020E00061E08E810E94281881E090E00E946017D4
:1020F00060E08E810E94281884E690E0DF91CF9105
:102100000C946017CF92DF92EF92FF920F931F9380
:10211000CF93DF936C017C0187E0E80EF11CC0E0F7
:10212000D0E0062F10E0B8010C2E02C0759567951F
:102130000A94E2F76170F70181917F010E942818EB
:102140002196C430D10579F7C601DF91CF911F9157
:102150000F91FF90EF90DF90CF900C946510CF928D
:10216000DF92EF92FF920F931F93CF93DF936C0157
:102170007C0187E0E80EF11CC0E0D0E0062F10E003
:10218000B8010C2E02C0759567950A94E2F761704C
:10219000F70181917F010E9428182196C830D1054E
:1021A00079F7C601DF91CF911F910F91FF90EF90CA
:1021B000DF90CF900C9465101F93CF93DF93EC01C9
:1021C000162F642F8C810E9428188D818F3F19F063
:1021D00060E00E9428188F85612F84FF06C0CE0121
:1021E000DF91CF911F910C94AF1070E084E0759552
:1021F00067958A95E1F7CE010E948210612FCE018A
:10220000DF91CF911F910C94821040E00C94DC1070
:1022100061E00E94051180ED97E00C946017FC01CD
:10222000443008F043E08389481710F04FEF480F1F
:10223000DF01A40FB11D54969C91690F6068CF0116
:102240000C940511FC016089262F2460208B6C60A2
:102250000C940511EF92FF920F931F93CF93DF938E
:10226000EC01423018F08F8588608F874B8B1C8A79
:1022700080E48D8B6E8B70E0605C7F4F6F8B2223D0
:1022800029F0413019F48F8584608F8761E08C815B
:102290000E94EC178D818F3F19F061E00E94EC17CE
:1022A00061E08E810E94EC177E0187E0E80EF11C50
:1022B00000E010E08F8584FD03C084E090E002C060
:1022C00088E090E0081719074CF461E0F70181916C
:1022D0007F010E94EC170F5F1F4FECCF80E593EC5E
:1022E0000E94601760E08C810E94281860E08E8157
:1022F0000E9428188D818F3F19F060E00E942818F5
:102300006F8564FD1DC063E0CE010E94821084E9E8
:1023100091E10E94601763E0CE010E94821084E97F
:1023200091E10E94601763E0CE010E94821086E96D
:1023300090E00E94601762E0CE010E94821016C0F9
:102340006062CE010E94051184E991E10E9460174C
:102350006F856062CE010E94051186E990E00E94BF
:1023600060176F856062CE010E9405116F85606203
:10237000CE010E94051184E0888BCE010E942211BB
:10238000CE010E94081182E0898B66E0CE01DF91C8
:10239000CF911F910F91FF90EF900C940511CF9268
:1023A000EF920F93FC011382128281EE92E09183EF
:1023B000808364838FEF8583468327830087E1864C
:1023C000C2861386148615861686178620E041E09D
:1023D00060E1CF010F91EF90CF900C942A1141E072
:1023E0000E94DC1081E090E00895CF92DF92EF929E
:1023F000FF920F931F93CF93DF936C017A018B01B0
:10240000C0E0D0E0CE15DF0581F0D8016D918D01DF
:10241000D601ED91FC910190F081E02DC601099566
:10242000892B11F02196EECF7E01C701DF91CF916C
:102430001F910F91FF90EF90DF90CF900895DC01F6
:10244000ED91FC910190F081E02D09944F925F9203
:102450006F927F928F929F92AF92BF92CF92DF92B4
:10246000EF92FF920F931F93CF93DF9300D000D092
:102470001F92CDB7DEB78B0129013A0190917A0204
:10248000891721F09F3F09F04DC205C0E8E6F0E052
:1024900024912D8384C080937A02E8E6F0E0949141
:1024A0009D839F3F09F43EC2913009F44DC058F11D
:1024B000923009F074C01092B0001092B100909167
:1024C000B00092609093B0009091B10091609093B1
:1024D000B100282F30E0F901EF56FF4FE491F0E012
:1024E000EE0FFF1FEB55FF4F459154915093F402AF
:1024F0004093F302F901E358FF4FE491E093F202B5
:1025000092E09D830BC214BC15BC94B5926094BD3F
:1025100095B5916095BD282F30E0F901EF56FF4F3A
:10252000E491F0E0EE0FFF1FEB55FF4F4591549102
:102530005093020340930103F901E358FF4FE491E4
:10254000E09300031D82EAC1109280001092810086
:1025500090918100986090938100909181009160AA
:1025600090938100282F30E0F901EF56FF4FE4915E
:10257000F0E0EE0FFF1FEB55FF4F45915491509344
:10258000FB024093FA02F901E358FF4FE491E09314
:10259000F90261E00E94EC1721E02D8389C02D81B2
:1025A00027FDC0C161E00E94EC178D818D7F09F08D
:1025B0007FC04801A12CB12C60E072E18AE790E075
:1025C000A50194010E94791829833A834B835C8387
:1025D00069017A0181E0C81AD108E108F1089FEF8A
:1025E000C916D104E104F10409F008F44EC060E416
:1025F00072E48FE090E0A50194010E9479186901CE
:102600007A0181E0C81AD108E108F1089D81923071
:1026100009F52FEFC216D104E104F10409F008F422
:1026200044C160E970ED83E090E0A50194010E944F
:10263000791869017A0181E0C81AD108E108F10826
:102640009FEFC916D104E104F10411F008F0BAC0FB
:1026500083E027C02FEFC216D104E104F104B9F0E2
:10266000B0F068E478EE81E090E0A50194010E946A
:10267000791869017A0181E0C81AD108E108F108E6
:102680009D81992309F413C1DCC081E001C082E07F
:102690009D81911106C095B5987F892B85BD44C059
:1026A00085E09091B100987F892B8093B1003CC068
:1026B0004801A12CB12C60E072E18AE790E0A5010D
:1026C00094010E94791869017A0181E0C81AD10841
:1026D000E108F108C114D10491E0E906F10488F0A1
:1026E00068E478EE81E090E0A50194010E947918F9
:1026F00069017A0181E0C81AD108E108F10883E094
:1027000001C081E09D81913079F490918100987FA2
:10271000892B80938100411451046104710449F4B0
:102720002FEF3FEFA9012CC0411451046104710443
:1027300071F0D801AA0FBB1FA30192010E94981843
:1027400028EE33E040E050E00E94571803C02FEF1E
:102750003FEFA9018D81813099F0823019F181110B
:10276000E1C0C7BC209303033093040340930503E7
:102770005093060380916E00826080936E00D2C0F9
:10278000D0928900C09288002093FC023093FD0211
:102790004093FE025093FF0280916F00826080930D
:1027A0006F00C0C0C092B3002093F5023093F602D0
:1027B0004093F7025093F8028091700082608093FA
:1027C0007000B0C068E478EE81E090E0A50194016B
:1027D0000E94791869017A0191E0C91AD108E108CB
:1027E000F1082FEFC216D104E104F10441F138F1F0
:1027F00064E274EF80E090E0A50194010E947918F2
:1028000069017A0181E0C81AD108E108F1089FEF57
:10281000C916D104E104F10409F008F441CF62E1E2
:102820007AE780E090E0A50194010E94791869019F
:102830007A0181E0C81AD108E108F10819C084E0E2
:1028400030CF2FEFC216D104E104F10409F008F4EF
:1028500063C062E17AE780E090E0A50194010E9404
:10286000791869017A0191E0C91AD108E108F108E3
:102870008FEFC816D104E104F104A9F0A0F089811A
:102880009A81AB81BC812AE0B595A79597958795EC
:102890002A95D1F76C017D0121E0C21AD108E10827
:1028A000F10887E0FECE86E0FCCE82E0FACE8FEF24
:1028B000C816D104E104F10469F160F162E17AE73C
:1028C00080E090E0A50194010E94791869017A01E5
:1028D00091E0C91AD108E108F1082FEFC216D1041E
:1028E000E104F104A9F0A0F089819A81AB81BC8157
:1028F0003AE0B595A795979587953A95D1F76C01EC
:102900007D0121E0C21AD108E108F10885E0C3CEBB
:1029100084E0C1CE83E0BFCE84E0BACE61E00E9405
:10292000EC1747CE0F900F900F900F900F90DF9104
:10293000CF911F910F91FF90EF90DF90CF90BF90BC
:10294000AF909F908F907F906F905F904F90089581
:10295000813039F018F0823051F0089510926E00F5
:10296000089580916F008D7F80936F00089580910E
:1029700070008D7F8093700081E08093B000809123
:10298000B100887F84608093B1001092B3000895F5
:10299000CF93C82F80917A02C81307C0E8E6F0E011
:1029A00084919FEF90937A0201C08FEF0E94A81448
:1029B00060E08C2FCF910C9428181F920F920FB6C5
:1029C0000F9211242F933F934F935F936F937F93B5
:1029D0008F939F93AF93BF93EF93FF938091F502F3
:1029E0009091F602A091F702B091F802892B8A2B00
:1029F0008B2B51F19091F202E091F302F091F402ED
:102A00008081892780838091F5029091F602A091C0
:102A1000F702B091F802181619061A061B06C4F43C
:102A20008091F5029091F602A091F702B091F80220
:102A30000197A109B1098093F5029093F602A09342
:102A4000F702B093F80204C080917A020E94C81481
:102A5000FF91EF91BF91AF919F918F917F916F9176
:102A60005F914F913F912F910F900FBE0F901F904C
:102A70001895611571058105910511F00C94721A74
:102A80000895CF92DF92EF92FF9261157105810553
:102A9000910549F06B017C010E94241AA70196015F
:102AA0000E94791803C060E070E0CB01FF90EF90C6
:102AB000DF90CF9008950895FC01808191810C945E
:102AC0005019CF93DF93EC0188819981009711F021
:102AD0000E945019198218821D821C821B821A8240
:102AE000DF91CF9108950F931F93CF93DF93EC0164
:102AF0008B016F5F7F4F888199810E947B1A0097BD
:102B000031F0998388831B830A8381E001C080E0D0
:102B1000DF91CF911F910F910895CF93DF93EC0137
:102B200088819981892B29F08A819B818617970753
:102B300060F4CE010E947315882341F08C819D8141
:102B4000892B19F4E881F981108281E0DF91CF911E
:102B50000895EF92FF920F931F93CF93DF93EC01B1
:102B60007B018A01BA010E948D15811104C0CE013A
:102B70000E94611507C01D830C83B701888199816C
:102B80000E944A1BCE01DF91CF911F910F91FF90C0
:102B9000EF900895FC011182108213821282158237
:102BA00014826115710551F0FB0101900020E9F7D5
:102BB0003197AF01461B570B0C94A91508950F933D
:102BC0001F93CF93DF938C01EB01FC0180819181F6
:102BD0000097D1F0688179816115710599F02BE535
:102BE00035E1232B79F0428153812C813D814217BD
:102BF000530740F00E944A1B8C819D81F801958308
:102C0000848313C00E94501988819981F8019183AF
:102C100080838A819B81938382838C819D8195832C
:102C20008483198218821B821A821D821C82DF9182
:102C3000CF911F910F910895CF93DF93EC01FB018A
:102C40008617970761F0608171816115710529F020
:102C5000448155810E94A91502C00E946115CE01D0
:102C6000DF91CF910895CF93DF93EC0186179707FB
:102C700011F00E94DF15CE01DF91CF910895EF9200
:102C8000FF920F931F93CF93DF936115710511F49A
:102C900080E01CC041155105C1F07B01EC018C8125
:102CA0009D818A01080F191FB801CE010E948D1560
:102CB000882371F3288139818C819D81B701820F2E
:102CC000931F0E944A1B1D830C8381E0DF91CF91EB
:102CD0001F910F91FF90EF900895CF93DF9300D055
:102CE000CDB7DEB769831A8241E050E0BE016F5F65
:102CF0007F4F0E943F160F900F90DF91CF91089564
:102D0000EF92FF920F931F93CF93DF93CDB7DEB770
:102D100028970FB6F894DEBF0FBECDBF7C01CB0164
:102D20004AE08E010F5F1F4FB8010E94511BF8014E
:102D300001900020E9F73197AF01401B510BB8011A
:102D4000C7010E943F1628960FB6F894DEBF0FBE4B
:102D5000CDBFDF91CF911F910F91FF90EF9008951C
:102D6000EF92FF920F931F93CF93DF93CDB7DEB710
:102D700027970FB6F894DEBF0FBECDBF7C01CB0105
:102D80004AE08E010F5F1F4FB8010E945C1BF801E3
:102D900001900020E9F73197AF01401B510BB801BA
:102DA000C7010E943F1627960FB6F894DEBF0FBEEC
:102DB000CDBFDF91CF911F910F91FF90EF900895BC
:102DC000FC01248135816217730720F48081918191
:102DD000009729F41092070387E093E00895860F87
:102DE000971F089508950E946B170E94F2160E9483
:102DF0006409C0E0D0E00E9468092097E1F30E94D6
:102E00000000F9CF0C94B8180C94B8180C94501911
:102E10000C9450191F920F920FB60F9211242F93FA
:102E20003F938F939F93AF93BF93809109039091AA
:102E30000A03A0910B03B0910C033091080323E027
:102E4000230F2D3720F40196A11DB11D05C026E8E2
:102E5000230F0296A11DB11D20930803809309033F
:102E600090930A03A0930B03B0930C0380910D037E
:102E700090910E03A0910F03B09110030196A11D34
:102E8000B11D80930D0390930E03A0930F03B09395
:102E90001003BF91AF919F918F913F912F910F9010
:102EA0000FBE0F901F9018952FB7F89460910903EB
:102EB00070910A0380910B0390910C032FBF08952A
:102EC0008230910538F0880F991F880F991F059758
:102ED0000197F1F70895789484B5826084BD84B534
:102EE000816084BD85B5826085BD85B5816085BD05
:102EF000EEE6F0E0808181608083E1E8F0E010821E
:102F0000808182608083808181608083E0E8F0E05E
:102F1000808181608083E1EBF0E080818460808348
:102F2000E0EBF0E0808181608083EAE7F0E080817F
:102F300084608083808182608083808181608083DF
:102F40008081806880831092C10008958E3008F0DF
:102F50008E5020917B0290E4299F9001112487706C
:102F6000822B80937C0080917A00806480937A0029
:102F700080917A0086FDFCCF8091780020917900C5
:102F800090E0922B0895833081F028F4813099F0FD
:102F90008230A1F008958730A9F08830B9F08430EC
:102FA000D1F4809180008F7D03C0809180008F7765
:102FB00080938000089584B58F7702C084B58F7D9B
:102FC00084BD08958091B0008F7703C08091B000D8
:102FD0008F7D8093B0000895CF93DF9390E0FC0144
:102FE000E358FF4F2491FC01EF56FF4F8491882353
:102FF00061F190E0880F991FFC01E155FF4FC591E9
:10300000D491FC01EB55FF4FA591B491611109C01A
:103010009FB7F8948881209582238883EC912E2392
:103020000BC0623061F49FB7F8948881322F3095DD
:1030300083238883EC912E2B2C939FBF06C08FB7E0
:10304000F894E8812E2B28838FBFDF91CF910895CC
:103050001F93CF93DF93282F30E0F901E759FF4FFB
:103060008491F901E358FF4FD491F901EF56FF4FD6
:10307000C491CC23C1F0162F81110E94C317EC2FED
:10308000F0E0EE0FFF1FEB55FF4FA591B4919FB7F6
:10309000F894111104C08C91D095D82302C0EC9102
:1030A000DE2BDC939FBFDF91CF911F910895A1E2AA
:1030B0001A2EAA1BBB1BFD010DC0AA1FBB1FEE1FB2
:1030C000FF1FA217B307E407F50720F0A21BB30BFD
:1030D000E40BF50B661F771F881F991F1A9469F779
:1030E00060957095809590959B01AC01BD01CF01D5
:1030F0000895052E97FB1EF400940E94901857FD2A
:1031000007D00E94571807FC03D04EF40C94901877
:1031100050954095309521953F4F4F4F5F4F089503
:1031200090958095709561957F4F8F4F9F4F089533
:103130000E94A918A59F900DB49F900DA49F800D8B
:10314000911D11240895EE0FFF1F0590F491E02DBD
:103150000994A29FB001B39FC001A39F700D811D70
:103160001124911DB29F700D811D1124911D089590
:103170000F931F93CF93DF938230910510F482E079
:1031800090E0E0911303F091140320E030E0A0E020
:10319000B0E0309719F140815181028113814817C5
:1031A0005907C8F08417950769F4109731F0129603
:1031B0000C93129713961C9327C00093130310933C
:1031C000140322C02115310519F04217530718F4D2
:1031D0009A01BD01EF01DF01F801DBCF21153105B7
:1031E000F9F0281B390B2430310580F48A819B814A
:1031F0006115710521F0FB019383828304C09093D4
:10320000140380931303FE01329644C0FE01E20FC3
:10321000F31F8193919322503109398328833AC057
:103220002091110330911203232B41F420910201CC
:103230003091030130931203209311032091000178
:10324000309101012115310541F42DB73EB7409170
:10325000040150910501241B350BE0911103F091FD
:103260001203E217F307A0F42E1B3F0B28173907B0
:1032700078F0AC014E5F5F4F2417350748F04E0FD2
:103280005F1F50931203409311038193919302C0E7
:10329000E0E0F0E0CF01DF91CF911F910F91089511
:1032A000CF93DF93009709F481C0FC01329713821A
:1032B0001282A0911303B0911403109781F420811E
:1032C0003181820F931F209111033091120328172F
:1032D000390751F5F0931203E093110367C0ED0134
:1032E00020E030E0CE17DF0740F44A815B819E0189
:1032F00041155105F1F0EA01F5CFD383C283408136
:103300005181840F951FC817D90759F48881998175
:10331000840F951F0296918380838A819B8193837A
:1033200082832115310529F4F0931403E0931303EC
:103330003DC0E901FB83EA8349915991C40FD51F30
:10334000EC17FD0761F480819181840F951F02962F
:10335000E90199838883828193819B838A83E0E05A
:10336000F0E012968D919C911397009719F0FD0152
:10337000DC01F7CF8D919C9111979D012E5F3F4FFE
:10338000820F931F209111033091120328173907E0
:1033900069F4309729F4109214031092130302C0B9
:1033A00013821282B0931203A0931103DF91CF9185
:1033B00008958F929F92AF92BF92CF92DF92EF9239
:1033C000FF92CF93DF93EC01688179818A819B81A1
:1033D000611571058105910521F464E279ED8BE5B4
:1033E00097E02DE133EF41E050E00E947918490168
:1033F0005A019B01AC01A7EAB1E40E9498186B0145
:103400007C01ACEEB4EFA50194010E94891BDC01A4
:10341000CB018C0D9D1DAE1DBF1DB7FF03C00197D5
:10342000A109B04888839983AA83BB83BC01CD01DD
:103430009F77DF91CF91FF90EF90DF90CF90BF907B
:10344000AF909F908F9008958F929F92AF92BF926E
:10345000CF92DF92EF92FF92609106017091070187
:10346000809108019091090161157105810591050F
:1034700021F464E279ED8BE597E02DE133EF41E053
:1034800050E00E94791849015A019B01AC01A7EA5A
:10349000B1E40E9498186B017C01ACEEB4EFA50179
:1034A00094010E94891BDC01CB018C0D9D1DAE1D7A
:1034B000BF1DB7FF03C00197A109B0488093060163
:1034C00090930701A0930801B0930901BC01CD01BD
:1034D0009F77FF90EF90DF90CF90BF90AF909F903D
:1034E0008F900895609306017093070180930801FF
:1034F000909309010895A0E0B0E0E1E8FAE10C94AE
:10350000921BEC01009721F4CB010E94B818B4C0C3
:10351000FC01E60FF71F9C0122503109E217F30767
:1035200008F4A8C0D9010D911C911197061717072F
:10353000B0F00530110508F49BC0C8010497861748
:10354000970708F495C002501109061B170B019349
:1035500011936D937C93CF010E94501989C05B0138
:10356000A01AB10A4C01800E911EA0911303B091D4
:103570001403612C712CE12CF12C109709F446C036
:103580008D919C911197A815B905B1F56C0142E098
:10359000C40ED11CCA14DB0478F14C018A189B08B4
:1035A000640142E0C40ED11C1296BC90129713968F
:1035B000AC91B5E0CB16D10440F0B282A3839182E6
:1035C0008082D9016D937C9309C00E5F1F4F800FDD
:1035D000911FF90191838083EB2DFA2FE114F104FF
:1035E00031F0D7011396FC93EE93129741C0F093FC
:1035F0001403E09313033CC06816790608F43C01F9
:103600007D0112960D90BC91A02DB7CF8091110332
:103610009091120388169906E1F466167706C8F4AD
:103620008091000190910101009741F48DB79EB700
:103630004091040150910501841B950BE817F9078F
:10364000C8F4F0931203E0931103F90171836083CE
:103650000FC0CB010E94B8187C01009759F0A80157
:10366000BE010E94411BCE010E945019C70104C037
:10367000CE0102C080E090E0CDB7DEB7EEE00C9462
:10368000AE1BFB01DC0102C001900D924150504085
:10369000D8F70895FB01DC0101900D920020E1F7BD
:1036A0000895BB274A3031F4992322F4BDE2909566
:1036B00081959F4F0C945D1BBB27FB015527AA27C3
:1036C000880F991FAA1FA41710F0A41B83955051AF
:1036D000B9F7A05DAA3308F0A95DA193009779F727
:1036E000B111B1931192CB010C94761BDC01FC015A
:1036F000672F71917723E1F7329704C07C916D9326
:1037000070836291AE17BF07C8F30895B7FF0C949A
:1037100098180E949818821B930B08952F923F923D
:103720004F925F926F927F928F929F92AF92BF92D1
:10373000CF92DF92EF92FF920F931F93CF93DF937D
:10374000CDB7DEB7CA1BDB0B0FB6F894DEBF0FBEDA
:10375000CDBF09942A88398848885F846E847D8427
:103760008C849B84AA84B984C884DF80EE80FD8029
:103770000C811B81AA81B981CE0FD11D0FB6F8949F
:10378000DEBF0FBECDBFED01089510E0CEE5D0E065
:1037900004C0FE010E94A3182196CF35D107C9F7B6
:0437A000F894FFCFCB
:1037A400000015038000010000007D007D00FA0088
:1037B4007D007D007D007D00FA007D007D007D00A0
:1037C4007D00FA007D007D007D007D0077017D0095
:1037D4007D007D00FA007D007D007D007D00FA0003
:1037E4007D007D007D007D00FA007D007D007D0070
:1037F4007D0077017D007D007D00FA007D007D0065
:103804007D007D00FA007D007D007D007D00FA00D2
:103814007D007D007D007D007D00FA007D007D003F
:103824007D00FA007D007D00FA007D00FA007D0035
:103834007D007D00FA007D007D007D007D00770124
:103844007701FA007D007D007D00FA007D007D0097
:103854007D007D00FA007D007D007D007D00770104
:103864007D004A018801B801B8010000B801EE01E9
:103874000B020B0200000B024B02EE01EE010000F2
:10388400B8018801B80100004A018801B801B801F3
:103894000000B801EE010B020B0200000B024B0208
:1038A400EE01EE010000B8018801B80100004A01F0
:1038B4008801B801B8010000B8010B024B024B02A9
:1038C40000004B029302BA02BA02000093024B02B8
:1038D4009302B8010000B801EE010B020B020000D4
:1038E4004B029302B8010000B8010B02EE01EE0195
:1038F40000000B02B801EE010000B801B801B801E4
:10390400EE010B020B0200000B024B02EE01EE0172
:103914000000B8018801B8010000FF0100000000A8
:10392400890000000000C6000000000054010000EF
:103934000000900100000000BB0100000000F7013E
:10394400000000002D0250756E6B74793A20004E11
:103954002E206B6C6F63656B3A20004B6F6E69654C
:103964006320677279004E616369736E696A00202F
:10397400202070727A796369736B20210000000043
:0A39840000EF11F51161106410004E
:00000001FF
