:100000000C9461000C9482030C94A9030C947E0060
:100010000C947E000C947E000C947E000C947E0068
:100020000C947E000C947E000C947E000C947E0058
:100030000C947E000C947E000C947E000C947E0048
:100040000C9416010C947E000C947E000C947E009F
:100050000C947E000C947E000C947E000C947E0028
:100060000C947E000C947E00000000080002010049
:100070000003040700000000000000000102040863
:100080001020408001020408102001020408102002
:10009000040404040404040402020202020203032E
:1000A00003030303000000002300260029000000D2
:1000B0000000250028002B0000000000240027007D
:1000C0002A0011241FBECFEFD8E0DEBFCDBF11E064
:1000D000A0E0B1E0ECE0F8E102C005900D92A6339B
:1000E000B107D9F721E0A6E3B1E001C01D92AF331B
:1000F000B207E1F70E9486080C94040C0C940000EF
:1001000061E08DE00C94BB0261E08DE00E94F7029B
:1001100064E670E080E090E00E94910160E08DE094
:100120000E94F70264E670E080E090E00C94910198
:1001300080E090E00895089508950E94F70B0E94D2
:10014000F70B0895CF92DF92EF92FF920F931F93D8
:10015000CF93DF93F82ED62FE42E07E010E0C0E017
:1001600087E0C82ED12C61E08D2F0E94F7028F2DE1
:10017000E1100AC00E9426039601201B310B01C02A
:10018000880F2A95EAF707C00E942603002E01C0B7
:10019000880F0A94EAF7C82B60E08D2F0E94F702BF
:1001A0000150110900F78C2FDF91CF911F910F9112
:1001B000FF90EF90DF90CF900895BF92CF92DF92A3
:1001C000EF92FF920F931F93CF93DF93C82ED62EFB
:1001D000B42EC7E0D0E0022F10E087E0E82EF12C2B
:1001E000B11005C0C7018C1B9D0BB80102C0B8013E
:1001F0008C2F02C0759567958A95E2F761708C2DFA
:100200000E94F70261E08D2D0E94F70260E08D2DC3
:100210000E94F702219720F7DF91CF911F910F9154
:10022000FF90EF90DF90CF90BF9008951F920F92B4
:100230000FB60F9211242F933F938F939F93AF93F9
:10024000BF938091360190913701A0913801B09110
:10025000390130913E0123E0230F2D3720F4019620
:10026000A11DB11D05C026E8230F0296A11DB11DD9
:1002700020933E018093360190933701A09338017B
:10028000B093390180913A0190913B01A0913C01DA
:10029000B0913D010196A11DB11D80933A0190934B
:1002A0003B01A0933C01B0933D01BF91AF919F9161
:1002B0008F913F912F910F900FBE0F901F90189527
:1002C0002FB7F89460913601709137018091380111
:1002D000909139012FBF08953FB7F89480913A016A
:1002E00090913B01A0913C01B0913D0126B5A89BA6
:1002F00005C02F3F19F00196A11DB11D3FBFBA2FB8
:10030000A92F982F8827820F911DA11DB11DBC0117
:10031000CD0142E0660F771F881F991F4A95D1F7DC
:1003200008958F929F92AF92BF92CF92DF92EF92F9
:10033000FF926B017C010E946C014B015C01C114B6
:10034000D104E104F10401F10E94A1000E946C01BA
:10035000DC01CB0188199909AA09BB09883E9340A1
:10036000A105B10560F321E0C21AD108E108F10846
:1003700088EE880E83E0981EA11CB11CC114D10424
:10038000E104F10419F7DBCFFF90EF90DF90CF90FD
:10039000BF90AF909F908F9008958230910538F074
:1003A000880F991F880F991F05970197F1F70895F6
:1003B000789484B5826084BD84B5816084BD85B540
:1003C000826085BD85B5816085BDEEE6F0E0808107
:1003D00081608083E1E8F0E0108280818260808328
:1003E000808181608083E0E8F0E0808181608083AB
:1003F000E1EBF0E0808184608083E0EBF0E08081DD
:1004000081608083EAE7F0E080818460808380817E
:100410008260808380818160808380818068808326
:100420001092C10008958093000108958E3008F065
:100430008E502091000190E4299F90011124877033
:10044000822B80937C0080917A00806480937A0074
:1004500080917A0086FDFCCF809178002091790010
:1004600090E0922B08951F93CF93DF93182FEB0109
:1004700061E00E94BB02209711F460E004C0CF3F0E
:10048000D10539F461E0812FDF91CF911F910C9458
:10049000F702E12FF0E0E859FF4FE491E330F9F083
:1004A00048F4E130B9F0E230A1F584B5806284BD52
:1004B000C8BD34C0E730E9F0E83019F1E43049F55F
:1004C00080918000806280938000D0938B00C093E5
:1004D0008A0024C084B5806884BDC7BD1FC08091D8
:1004E0008000806880938000D0938900C09388004A
:1004F00015C08091B00080688093B000C093B300B5
:100500000DC08091B00080628093B000C093B400B1
:1005100005C0C038D1050CF0B5CFAFCFDF91CF917A
:100520001F910895833081F028F4813099F0823052
:10053000A1F008958730A9F08830B9F08430D1F463
:10054000809180008F7D03C0809180008F778093A1
:100550008000089584B58F7702C084B58F7D84BDF7
:1005600008958091B0008F7703C08091B0008F7D97
:100570008093B0000895CF93DF9390E0FC01E4589E
:10058000FF4F2491FC01E057FF4F8491882361F1D4
:1005900090E0880F991FFC01E854FF4FC591D4915A
:1005A000FC01E255FF4FA591B491611109C09FB7BD
:1005B000F8948881209582238883EC912E230BC0A8
:1005C000623061F49FB7F8948881322F309583238D
:1005D0008883EC912E2B2C939FBF06C08FB7F89485
:1005E000E8812E2B28838FBFDF91CF9108951F9331
:1005F000CF93DF93282F30E0F901E859FF4F849122
:10060000F901E458FF4FD491F901E057FF4FC4912D
:10061000CC23C1F0162F81110E949202EC2FF0E042
:10062000EE0FFF1FE255FF4FA591B4919FB7F894CD
:10063000111104C08C91D095D82302C0EC91DE2B0F
:10064000DC939FBFDF91CF911F910895CF93DF93EC
:10065000282F30E0F901E859FF4F8491F901E4585F
:10066000FF4FD491F901E057FF4FC491CC2391F093
:1006700081110E949202EC2FF0E0EE0FFF1FEC556B
:10068000FF4FA591B491EC91ED2381E090E021F42E
:1006900080E002C080E090E0DF91CF91089508955E
:1006A0008230E8F4E82FF0E0EE0FFF1FEF5FFE4F1F
:1006B00071836083813041F0809169008C7F482B89
:1006C00040936900E89A089580916900837F440F00
:1006D000551F440F551F482B40936900E99A089510
:1006E000823078F4813011F0E89801C0E998E82F61
:1006F000F0E0EE0FFF1FEF5FFE4F8FE493E091837A
:10070000808308951F920F920FB60F9211242F939A
:100710003F934F935F936F937F938F939F93AF9389
:10072000BF93EF93FF93E0910101F09102010995CE
:10073000FF91EF91BF91AF919F918F917F916F91B9
:100740005F914F913F912F910F900FBE0F901F908F
:1007500018951F920F920FB60F9211242F933F936B
:100760004F935F936F937F938F939F93AF93BF93B9
:10077000EF93FF93E0910301F09104010995FF913C
:10078000EF91BF91AF919F918F917F916F915F9109
:100790004F913F912F910F900FBE0F901F90189582
:1007A000611571058105910511F00C94EE0B08950A
:1007B000CF92DF92EF92FF9261157105810591054D
:1007C00049F06B017C010E94A00BA70196010E94D9
:1007D000E00803C060E070E0CB01FF90EF90DF9095
:1007E000CF900895CF92DF92EF92FF920F931F93D5
:1007F000621773078407950784F489019A016B01D6
:100800007C01C901B8016C197D098E099F090E94FC
:10081000D8036C0D7D1D8E1D9F1D1F910F91FF90A4
:10082000EF90DF90CF9008954F925F926F927F92FA
:10083000AF92BF92CF92DF92EF92FF920F931F93EE
:10084000CF93DF93CDB7DEB729013A019B01AC010D
:10085000241935094609570989899A89AB89BC89C0
:10086000BC01CD016A197B098C099D090E94AE0863
:10087000A801970124193509460957090E94E00883
:10088000CA01B9016A0D7B1D8C1D9D1DDF91CF91A1
:100890001F910F91FF90EF90DF90CF90BF90AF909E
:1008A0007F906F905F904F900895089570E09B0146
:1008B000382BC9010895CF92DF92EF92FF920F93E8
:1008C0001F93CF93DF936C017A018B01C0E0D0E0DE
:1008D000CE15DF0581F0D8016D918D01D601ED9126
:1008E000FC910190F081E02DC6010995892B11F052
:1008F0002196EECF7E01C701DF91CF911F910F911D
:10090000FF90EF90DF90CF900895EF92FF920F93BA
:100910001F93CF93DF938C017B01C0E0D0E0F70100
:10092000EC0FFD1F6491662361F0D801ED91FC91FD
:100930000190F081E02DC8010995892B11F02196D5
:10094000EECFCE01DF91CF911F910F91FF90EF90ED
:100950000895DB0114964D915C9115976D917C91F2
:10096000DC01ED91FC910280F381E02D09940C945F
:100970009908DC01ED91FC910190F081E02D099442
:10098000DB01ED91FC9111970190F081E02DBC010C
:10099000CD01099469E071E00C9499080F931F93BD
:1009A000CF93DF93EC010E9485048C01CE010E945D
:1009B000CA04800F911FDF91CF911F910F9108956D
:1009C0000F931F93CF93DF93EC010E94A9048C0136
:1009D000CE010E94CA04800F911FDF91CF911F9119
:1009E0000F9108950F931F93CF93DF93EC010E9413
:1009F00099088C01CE010E94CA04800F911FDF91DB
:100A0000CF911F910F9108950F931F93CF93DF9371
:100A1000EC010E94B9048C01CE010E94CA04800F2F
:100A2000911FDF91CF911F910F9108950F931F9305
:100A3000CF93DF93EC010E94C0048C01CE010E9491
:100A4000CA04800F911FDF91CF911F910F910895DC
:100A50008F929F92AF92BF92EF92FF920F931F934C
:100A6000CF93DF93CDB7DEB7A1970FB6F894DEBF73
:100A70000FBECDBF7C01FA01CB0119A2223008F4D0
:100A80002AE08E010F5D1F4F822E912CA12CB12CDC
:100A9000BF01A50194010E94BE08F901CA010150DD
:100AA00011096A3014F4605D01C0695CD8016C936F
:100AB000232B242B252B61F7B801C7010E9499082D
:100AC000A1960FB6F894DEBF0FBECDBFDF91CF91D8
:100AD0001F910F91FF90EF90BF90AF909F908F90DC
:100AE00008952115310541F4DC01ED91FC9101904F
:100AF000F081E02D642F09940C9428059A01462F6B
:100B000050E060E070E00C9471050F931F93CF9359
:100B1000DF93EC010E947E058C01CE010E94CA0485
:100B2000800F911FDF91CF911F910F9108959A012E
:100B3000AB0160E070E00C9471050F931F93CF93AD
:100B4000DF93EC010E9497058C01CE010E94CA043C
:100B5000800F911FDF91CF911F910F9108950F93F7
:100B60001F93CF93DF93EC010E9471058C01CE019E
:100B70000E94CA04800F911FDF91CF911F910F91A6
:100B80000895CF92DF92EF92FF920F931F93CF932E
:100B9000DF932115310581F4DC01ED91FC91019089
:100BA000F081E02D642FDF91CF911F910F91FF9085
:100BB000EF90DF90CF9009942A30310501F577FF4F
:100BC0001DC06A017B01EC016DE20E94B9048C0139
:100BD00044275527BA014C195D096E097F092AE09F
:100BE000CE010E942805800F911FDF91CF911F91A8
:100BF0000F91FF90EF90DF90CF9008952AE0DF9162
:100C0000CF911F910F91FF90EF90DF90CF900C94B8
:100C100028059A01AB01770F660B770B0C94C10581
:100C20000F931F93CF93DF93EC010E9409068C0171
:100C3000CE010E94CA04800F911FDF91CF911F91B6
:100C40000F9108950F931F93CF93DF93EC010E94B0
:100C5000C1058C01CE010E94CA04800F911FDF9153
:100C6000CF911F910F9108957F928F929F92AF9293
:100C7000BF92CF92DF92EF92FF920F931F93CF9389
:100C8000DF938C016A017B01722E9A01AB01C701CF
:100C9000B6010E94500B882319F06CE071E027C068
:100CA00046015701E894B7F82FEF3FEF4FE75FE7B2
:100CB000C501B4010E94500B81110DC02FEF3FEF11
:100CC0004FE75FE7C501B4010E94860918161CF4BE
:100CD00060E171E00CC02FEF3FEF4FE75FE4C70129
:100CE000B6010E94DE0A181694F464E171E0C801AE
:100CF000DF91CF911F910F91FF90EF90DF90CF90F8
:100D0000BF90AF909F908F907F900C9499082FEF99
:100D10003FEF4FE75FECC701B6010E94860987FDF0
:100D2000E4CF20E030E0A901C701B6010E948609A6
:100D300087FF0AC06DE2C8010E94B904EC01F7FA0E
:100D4000F094F7F8F09402C0C0E0D0E0B12C60E07D
:100D500070E080E09FE37B1441F020E030E040E26F
:100D600051E40E948B09B394F6CFA70196010E942B
:100D70001A096B017C010E94FD094B015C012AE00C
:100D8000AB01BC01C8010E942805C80FD91F7720FC
:100D9000B9F1C501B4010E942C0A9B01AC01C70145
:100DA000B6010E9419096B017C016EE2C8010E9424
:100DB000B904C80FD91F20E030E040E251E4C70178
:100DC000B6010E94E30A4B015C010E94FD096B0120
:100DD0007C014AE050E0C8010E949705C80FD91F66
:100DE000B60180E090E00E942C0A9B01AC01C50195
:100DF000B4010E9419096B017C017A947110DBCF58
:100E0000CE01DF91CF911F910F91FF90EF90DF9076
:100E1000CF90BF90AF909F908F907F9008950C944B
:100E200034060F931F93CF93DF93EC010E94340697
:100E30008C01CE010E94CA04800F911FDF91CF91D7
:100E40001F910F910895FC01918D228D892F90E0C3
:100E5000805C9F4F821B91098F7399270895FC0135
:100E6000918D828D981731F0828DE80FF11D858D5F
:100E700090E008958FEF9FEF0895FC01918D828D92
:100E8000981761F0828DDF01A80FB11D5D968C91DE
:100E9000928D9F5F9F73928F90E008958FEF9FEFE9
:100EA0000895FC01538D448D252F30E0842F90E070
:100EB000821B930B541710F0CF9608950197089555
:100EC00080E090E0892B49F080E090E0892B29F0C8
:100ED0000E94000081110C9400000895FC01848D93
:100EE000DF01A80FB11DA35ABF4F2C91848D90E054
:100EF00001968F739927848FA689B7892C93A0892F
:100F0000B1898C91837080648C93938D848D9813B8
:100F100006C00288F389E02D80818F7D808308954B
:100F2000EF92FF920F931F93CF93DF93EC0181E039
:100F3000888F9B8D8C8D981305C0E889F9898081F5
:100F400085FD26C0F62E0B8D10E00F5F1F4F0F732F
:100F50001127E02E8C8DE8120CC00FB607FCFACFDB
:100F6000E889F989808185FFF5CFCE010E946E075F
:100F7000F1CF8B8DFE01E80FF11DE35AFF4FF08298
:100F80009FB7F8940B8FEA89FB89808180620AC041
:100F90009FB7F894EE89FF896083E889F989808199
:100FA0008370806480839FBF81E090E0DF91CF9168
:100FB0001F910F91FF90EF900895CF93DF93EC0175
:100FC000888D8823C9F0EA89FB89808185FD05C069
:100FD000A889B9898C9186FD0FC00FB607FCF5CFA3
:100FE000808185FFF2CFA889B9898C9185FFEDCFEB
:100FF000CE010E946E07E7CFDF91CF910895CF9287
:10100000DF92EF92FF921F93CF93DF93EC016A017F
:101010007B01122FE889F98982E080834115514EC6
:1010200061057105B1F060E079E08DE390E0A70122
:1010300096010E94BE08DA01C9010197A109B10910
:10104000B695A795979587959C01211580E138075E
:10105000A8F0E889F989108260E874E88EE190E0F0
:10106000A70196010E94BE08DA01C9010197A109F2
:10107000B109B695A795979587959C01EC85FD8557
:101080003083EE85FF852083188EEC89FD891083DF
:10109000EA89FB89808180618083EA89FB8980817C
:1010A00088608083EA89FB89808180688083EA89FF
:1010B000FB8980818F7D8083DF91CF911F91FF908D
:1010C000EF90DF90CF900895CF93DF93EC01E8810C
:1010D000F9810680F781E02D0995EA89FB898081F5
:1010E0008F7E8083EA89FB898081877F8083EA897C
:1010F000FB8980818F778083EA89FB8980818F7D5E
:1011000080838A8D898FDF91CF9108950E94D801C5
:101110000E949B000E948000C0E6D7E00E948400ED
:101120002097E1F30E946007F9CF80E090E00895F6
:1011300008956115710579F0FB0101900020E9F730
:101140003197AF01461B570BDC01ED91FC910280FA
:10115000F381E02D099480E090E00895DB018F9306
:101160009F930E94FF08BF91AF91A29F800D911D98
:10117000A39F900DB29F900D11240895A1E21A2E05
:10118000AA1BBB1BFD010DC0AA1FBB1FEE1FFF1F2B
:10119000A217B307E407F50720F0A21BB30BE40B7B
:1011A000F50B661F771F881F991F1A9469F76095C2
:1011B0007095809590959B01AC01BD01CF0108957C
:1011C000052E97FB1EF400940E94F70857FD07D0E8
:1011D0000E94BE0807FC03D04EF40C94F70850950B
:1011E0004095309521953F4F4F4F5F4F0895909513
:1011F0008095709561957F4F8F4F9F4F08950E9406
:101200000A09A59F900DB49F900DA49F800D911D7C
:1012100011240895A29FB001B39FC001A39F700D38
:10122000811D1124911DB29F700D811D1124911DEE
:1012300008955058BB27AA270E9431090C94A40A8C
:101240000E94960A38F00E949D0A20F039F49F3FD0
:1012500019F426F40C94930A0EF4E095E7FB0C9431
:101260008D0AE92F0E94B50A58F3BA17620773076F
:101270008407950720F079F4A6F50C94D70A0EF4AC
:10128000E0950B2EBA2FA02D0B01B90190010C0196
:10129000CA01A0011124FF27591B99F0593F50F4AE
:1012A000503E68F11A16F040A22F232F342F442706
:1012B000585FF3CF469537952795A795F0405395FE
:1012C000C9F77EF41F16BA0B620B730B840BBAF0CE
:1012D0009150A1F0FF0FBB1F661F771F881FC2F739
:1012E0000EC0BA0F621F731F841F48F4879577954D
:1012F0006795B795F7959E3F08F0B0CF9395880F07
:1013000008F09927EE0F9795879508950E94690A2E
:1013100008F481E008950E949F090C94A40A0E9499
:101320009D0A58F00E94960A40F029F45F3F29F088
:101330000C948D0A51110C94D80A0C94930A0E94B3
:10134000B50A68F39923B1F3552391F3951B550B17
:10135000BB27AA2762177307840738F09F5F5F4F88
:10136000220F331F441FAA1FA9F335D00E2E3AF0C7
:10137000E0E832D091505040E695001CCAF72BD0DF
:10138000FE2F29D0660F771F881FBB1F2617370730
:101390004807AB07B0E809F0BB0B802DBF01FF2762
:1013A00093585F4F3AF09E3F510578F00C948D0AA8
:1013B0000C94D80A5F3FE4F3983ED4F38695779572
:1013C0006795B795F7959F5FC9F7880F911D96951B
:1013D000879597F90895E1E0660F771F881FBB1F77
:1013E000621773078407BA0720F0621B730B840B24
:1013F000BA0BEE1F88F7E09508950E94BD0A88F0A9
:101400009F5798F0B92F9927B751B0F0E1F0660FC8
:10141000771F881F991F1AF0BA95C9F714C0B13009
:1014200091F00E94D70AB1E008950C94D70A672F73
:10143000782F8827B85F39F0B93FCCF38695779538
:101440006795B395D9F73EF4909580957095619521
:101450007F4F8F4F9F4F0895E89409C097FB3EF44C
:1014600090958095709561957F4F8F4F9F4F9923F1
:10147000A9F0F92F96E9BB279395F695879577956F
:101480006795B795F111F8CFFAF4BB0F11F460FF2F
:101490001BC06F5F7F4F8F4F9F4F16C0882311F087
:1014A00096E911C0772321F09EE8872F762F05C09B
:1014B000662371F096E8862F70E060E02AF09A9536
:1014C000660F771F881FDAF7880F9695879597F92B
:1014D0000895990F0008550FAA0BE0E8FEEF1616C5
:1014E0001706E807F907C0F012161306E407F50718
:1014F00098F0621B730B840B950B39F40A2661F08C
:10150000232B242B252B21F408950A2609F4A1402E
:10151000A6958FEF811D811D089597F99F6780E83B
:1015200070E060E008959FEF80EC089500240A9435
:101530001616170618060906089500240A941216AE
:101540001306140605060895092E0394000C11F4E1
:10155000882352F0BB0F40F4BF2B11F460FF04C08E
:101560006F5F7F4F8F4F9F4F089557FD9058440FE7
:10157000551F59F05F3F71F04795880F97FB991FF2
:1015800061F09F3F79F087950895121613061406AF
:10159000551FF2CF4695F1DF08C01616170618063C
:1015A000991FF1CF86957105610508940895E89417
:1015B000BB2766277727CB0197F908950E94690A10
:1015C00008F48FEF08950E94F60A0C94A40A0E9472
:1015D000960A38F00E949D0A20F0952311F00C9491
:1015E0008D0A0C94930A11240C94D80A0E94B50A0F
:1015F00070F3959FC1F3950F50E0551F629FF00166
:10160000729FBB27F00DB11D639FAA27F00DB11D7E
:10161000AA1F649F6627B00DA11D661F829F222707
:10162000B00DA11D621F739FB00DA11D621F839F8E
:10163000A00D611D221F749F3327A00D611D231F64
:10164000849F600D211D822F762F6A2F11249F57B2
:1016500050409AF0F1F088234AF0EE0FFF1FBB1FB5
:10166000661F771F881F91505040A9F79E3F510574
:1016700080F00C948D0A0C94D80A5F3FE4F3983EF6
:10168000D4F3869577956795B795F795E7959F5F1E
:10169000C1F7FE2B880F911D9695879597F90895B0
:1016A0000E94690A880B990B08958F929F92AF92BE
:1016B000BF92CF92DF92EF92FF92CF93DF93EC0134
:1016C000688179818A819B81611571058105910508
:1016D00021F464E279ED8BE597E02DE133EF41E011
:1016E00050E00E94E00849015A019B01AC01A7EAC1
:1016F000B1E40E94FF086B017C01ACEEB4EFA501E0
:1017000094010E94FF0BDC01CB018C0D9D1DAE1DD1
:10171000BF1DB7FF03C00197A109B0488883998313
:10172000AA83BB83BC01CD019F77DF91CF91FF904E
:10173000EF90DF90CF90BF90AF909F908F900895E3
:101740008F929F92AF92BF92CF92DF92EF92FF92D1
:101750006091050170910601809107019091080147
:10176000611571058105910521F464E279ED8BE540
:1017700097E02DE133EF41E050E00E94E00849019D
:101780005A019B01AC01A7EAB1E40E94FF086B017A
:101790007C01ACEEB4EFA50194010E94FF0BDC01CB
:1017A000CB018C0D9D1DAE1DBF1DB7FF03C0019762
:1017B000A109B0488093050190930601A093070109
:1017C000B0930801BC01CD019F77FF90EF90DF90AF
:1017D000CF90BF90AF909F908F9008956093050138
:1017E000709306018093070190930801089581E0AA
:1017F00090E0F8940C94040CB7FF0C94FF080E943E
:0C180000FF08821B930B0895F894FFCFA3
:10180C00014F034F03010000000D0A006E616E00D2
:10181C00696E66006F766600000000009D005B0438
:10182C00950898080000000090075B045107DD073D
:06183C0023073D072F0702
:00000001FF
